{
  "_format": "hh-sol-artifact-1",
  "contractName": "MotusClinicalProfile",
  "sourceName": "contracts/MotusClinicalProfile.sol",
  "abi": [
    {
      "inputs": [],
      "stateMutability": "nonpayable",
      "type": "constructor"
    },
    {
      "inputs": [
        {
          "internalType": "address",
          "name": "sender",
          "type": "address"
        },
        {
          "internalType": "uint256",
          "name": "tokenId",
          "type": "uint256"
        },
        {
          "internalType": "address",
          "name": "owner",
          "type": "address"
        }
      ],
      "name": "ERC721IncorrectOwner",
      "type": "error"
    },
    {
      "inputs": [
        {
          "internalType": "address",
          "name": "operator",
          "type": "address"
        },
        {
          "internalType": "uint256",
          "name": "tokenId",
          "type": "uint256"
        }
      ],
      "name": "ERC721InsufficientApproval",
      "type": "error"
    },
    {
      "inputs": [
        {
          "internalType": "address",
          "name": "approver",
          "type": "address"
        }
      ],
      "name": "ERC721InvalidApprover",
      "type": "error"
    },
    {
      "inputs": [
        {
          "internalType": "address",
          "name": "operator",
          "type": "address"
        }
      ],
      "name": "ERC721InvalidOperator",
      "type": "error"
    },
    {
      "inputs": [
        {
          "internalType": "address",
          "name": "owner",
          "type": "address"
        }
      ],
      "name": "ERC721InvalidOwner",
      "type": "error"
    },
    {
      "inputs": [
        {
          "internalType": "address",
          "name": "receiver",
          "type": "address"
        }
      ],
      "name": "ERC721InvalidReceiver",
      "type": "error"
    },
    {
      "inputs": [
        {
          "internalType": "address",
          "name": "sender",
          "type": "address"
        }
      ],
      "name": "ERC721InvalidSender",
      "type": "error"
    },
    {
      "inputs": [
        {
          "internalType": "uint256",
          "name": "tokenId",
          "type": "uint256"
        }
      ],
      "name": "ERC721NonexistentToken",
      "type": "error"
    },
    {
      "inputs": [
        {
          "internalType": "address",
          "name": "owner",
          "type": "address"
        }
      ],
      "name": "OwnableInvalidOwner",
      "type": "error"
    },
    {
      "inputs": [
        {
          "internalType": "address",
          "name": "account",
          "type": "address"
        }
      ],
      "name": "OwnableUnauthorizedAccount",
      "type": "error"
    },
    {
      "anonymous": false,
      "inputs": [
        {
          "indexed": true,
          "internalType": "address",
          "name": "owner",
          "type": "address"
        },
        {
          "indexed": true,
          "internalType": "address",
          "name": "approved",
          "type": "address"
        },
        {
          "indexed": true,
          "internalType": "uint256",
          "name": "tokenId",
          "type": "uint256"
        }
      ],
      "name": "Approval",
      "type": "event"
    },
    {
      "anonymous": false,
      "inputs": [
        {
          "indexed": true,
          "internalType": "address",
          "name": "owner",
          "type": "address"
        },
        {
          "indexed": true,
          "internalType": "address",
          "name": "operator",
          "type": "address"
        },
        {
          "indexed": false,
          "internalType": "bool",
          "name": "approved",
          "type": "bool"
        }
      ],
      "name": "ApprovalForAll",
      "type": "event"
    },
    {
      "anonymous": false,
      "inputs": [
        {
          "indexed": false,
          "internalType": "uint256",
          "name": "_fromTokenId",
          "type": "uint256"
        },
        {
          "indexed": false,
          "internalType": "uint256",
          "name": "_toTokenId",
          "type": "uint256"
        }
      ],
      "name": "BatchMetadataUpdate",
      "type": "event"
    },
    {
      "anonymous": false,
      "inputs": [
        {
          "indexed": false,
          "internalType": "uint256",
          "name": "_tokenId",
          "type": "uint256"
        }
      ],
      "name": "MetadataUpdate",
      "type": "event"
    },
    {
      "anonymous": false,
      "inputs": [
        {
          "indexed": true,
          "internalType": "address",
          "name": "previousOwner",
          "type": "address"
        },
        {
          "indexed": true,
          "internalType": "address",
          "name": "newOwner",
          "type": "address"
        }
      ],
      "name": "OwnershipTransferred",
      "type": "event"
    },
    {
      "anonymous": false,
      "inputs": [
        {
          "indexed": true,
          "internalType": "address",
          "name": "wallet",
          "type": "address"
        },
        {
          "indexed": true,
          "internalType": "uint256",
          "name": "tokenId",
          "type": "uint256"
        },
        {
          "indexed": false,
          "internalType": "string",
          "name": "tokenURI",
          "type": "string"
        }
      ],
      "name": "ProfileMinted",
      "type": "event"
    },
    {
      "anonymous": false,
      "inputs": [
        {
          "indexed": true,
          "internalType": "address",
          "name": "from",
          "type": "address"
        },
        {
          "indexed": true,
          "internalType": "address",
          "name": "to",
          "type": "address"
        },
        {
          "indexed": true,
          "internalType": "uint256",
          "name": "tokenId",
          "type": "uint256"
        }
      ],
      "name": "Transfer",
      "type": "event"
    },
    {
      "inputs": [
        {
          "internalType": "address",
          "name": "to",
          "type": "address"
        },
        {
          "internalType": "uint256",
          "name": "tokenId",
          "type": "uint256"
        }
      ],
      "name": "approve",
      "outputs": [],
      "stateMutability": "nonpayable",
      "type": "function"
    },
    {
      "inputs": [
        {
          "internalType": "address",
          "name": "owner",
          "type": "address"
        }
      ],
      "name": "balanceOf",
      "outputs": [
        {
          "internalType": "uint256",
          "name": "",
          "type": "uint256"
        }
      ],
      "stateMutability": "view",
      "type": "function"
    },
    {
      "inputs": [
        {
          "internalType": "uint256",
          "name": "tokenId",
          "type": "uint256"
        }
      ],
      "name": "getApproved",
      "outputs": [
        {
          "internalType": "address",
          "name": "",
          "type": "address"
        }
      ],
      "stateMutability": "view",
      "type": "function"
    },
    {
      "inputs": [
        {
          "internalType": "address",
          "name": "wallet",
          "type": "address"
        }
      ],
      "name": "hasProfile",
      "outputs": [
        {
          "internalType": "bool",
          "name": "",
          "type": "bool"
        }
      ],
      "stateMutability": "view",
      "type": "function"
    },
    {
      "inputs": [
        {
          "internalType": "address",
          "name": "owner",
          "type": "address"
        },
        {
          "internalType": "address",
          "name": "operator",
          "type": "address"
        }
      ],
      "name": "isApprovedForAll",
      "outputs": [
        {
          "internalType": "bool",
          "name": "",
          "type": "bool"
        }
      ],
      "stateMutability": "view",
      "type": "function"
    },
    {
      "inputs": [
        {
          "internalType": "address",
          "name": "to",
          "type": "address"
        },
        {
          "internalType": "string",
          "name": "tokenURI",
          "type": "string"
        }
      ],
      "name": "mintProfile",
      "outputs": [
        {
          "internalType": "uint256",
          "name": "",
          "type": "uint256"
        }
      ],
      "stateMutability": "nonpayable",
      "type": "function"
    },
    {
      "inputs": [],
      "name": "name",
      "outputs": [
        {
          "internalType": "string",
          "name": "",
          "type": "string"
        }
      ],
      "stateMutability": "view",
      "type": "function"
    },
    {
      "inputs": [],
      "name": "nextTokenId",
      "outputs": [
        {
          "internalType": "uint256",
          "name": "",
          "type": "uint256"
        }
      ],
      "stateMutability": "view",
      "type": "function"
    },
    {
      "inputs": [],
      "name": "owner",
      "outputs": [
        {
          "internalType": "address",
          "name": "",
          "type": "address"
        }
      ],
      "stateMutability": "view",
      "type": "function"
    },
    {
      "inputs": [
        {
          "internalType": "uint256",
          "name": "tokenId",
          "type": "uint256"
        }
      ],
      "name": "ownerOf",
      "outputs": [
        {
          "internalType": "address",
          "name": "",
          "type": "address"
        }
      ],
      "stateMutability": "view",
      "type": "function"
    },
    {
      "inputs": [
        {
          "internalType": "address",
          "name": "",
          "type": "address"
        }
      ],
      "name": "profileTokenOf",
      "outputs": [
        {
          "internalType": "uint256",
          "name": "",
          "type": "uint256"
        }
      ],
      "stateMutability": "view",
      "type": "function"
    },
    {
      "inputs": [],
      "name": "renounceOwnership",
      "outputs": [],
      "stateMutability": "nonpayable",
      "type": "function"
    },
    {
      "inputs": [
        {
          "internalType": "address",
          "name": "from",
          "type": "address"
        },
        {
          "internalType": "address",
          "name": "to",
          "type": "address"
        },
        {
          "internalType": "uint256",
          "name": "tokenId",
          "type": "uint256"
        }
      ],
      "name": "safeTransferFrom",
      "outputs": [],
      "stateMutability": "nonpayable",
      "type": "function"
    },
    {
      "inputs": [
        {
          "internalType": "address",
          "name": "from",
          "type": "address"
        },
        {
          "internalType": "address",
          "name": "to",
          "type": "address"
        },
        {
          "internalType": "uint256",
          "name": "tokenId",
          "type": "uint256"
        },
        {
          "internalType": "bytes",
          "name": "data",
          "type": "bytes"
        }
      ],
      "name": "safeTransferFrom",
      "outputs": [],
      "stateMutability": "nonpayable",
      "type": "function"
    },
    {
      "inputs": [
        {
          "internalType": "address",
          "name": "operator",
          "type": "address"
        },
        {
          "internalType": "bool",
          "name": "approved",
          "type": "bool"
        }
      ],
      "name": "setApprovalForAll",
      "outputs": [],
      "stateMutability": "nonpayable",
      "type": "function"
    },
    {
      "inputs": [
        {
          "internalType": "bytes4",
          "name": "interfaceId",
          "type": "bytes4"
        }
      ],
      "name": "supportsInterface",
      "outputs": [
        {
          "internalType": "bool",
          "name": "",
          "type": "bool"
        }
      ],
      "stateMutability": "view",
      "type": "function"
    },
    {
      "inputs": [],
      "name": "symbol",
      "outputs": [
        {
          "internalType": "string",
          "name": "",
          "type": "string"
        }
      ],
      "stateMutability": "view",
      "type": "function"
    },
    {
      "inputs": [
        {
          "internalType": "uint256",
          "name": "tokenId",
          "type": "uint256"
        }
      ],
      "name": "tokenURI",
      "outputs": [
        {
          "internalType": "string",
          "name": "",
          "type": "string"
        }
      ],
      "stateMutability": "view",
      "type": "function"
    },
    {
      "inputs": [
        {
          "internalType": "address",
          "name": "from",
          "type": "address"
        },
        {
          "internalType": "address",
          "name": "to",
          "type": "address"
        },
        {
          "internalType": "uint256",
          "name": "tokenId",
          "type": "uint256"
        }
      ],
      "name": "transferFrom",
      "outputs": [],
      "stateMutability": "nonpayable",
      "type": "function"
    },
    {
      "inputs": [
        {
          "internalType": "address",
          "name": "newOwner",
          "type": "address"
        }
      ],
      "name": "transferOwnership",
      "outputs": [],
      "stateMutability": "nonpayable",
      "type": "function"
    }
  ],
  "bytecode": "0x60806040523480156200001157600080fd5b50336040518060400160405280601681526020017f4d6f74757320436c696e6963616c2050726f66696c65000000000000000000008152506040518060400160405280600381526020016204d43560ec1b8152508160009081620000769190620001c0565b506001620000858282620001c0565b5050506001600160a01b038116620000b757604051631e4fbdf760e01b81526000600482015260240160405180910390fd5b620000c281620000c9565b506200028c565b600780546001600160a01b038381166001600160a01b0319831681179093556040519116919082907f8be0079c531659141344cd1fd0a4f28419497f9722a3daafe3b4186f6b6457e090600090a35050565b634e487b7160e01b600052604160045260246000fd5b600181811c908216806200014657607f821691505b6020821081036200016757634e487b7160e01b600052602260045260246000fd5b50919050565b601f821115620001bb57600081815260208120601f850160051c81016020861015620001965750805b601f850160051c820191505b81811015620001b757828155600101620001a2565b5050505b505050565b81516001600160401b03811115620001dc57620001dc6200011b565b620001f481620001ed845462000131565b846200016d565b602080601f8311600181146200022c5760008415620002135750858301515b600019600386901b1c1916600185901b178555620001b7565b600085815260208120601f198616915b828110156200025d578886015182559484019460019091019084016200023c565b50858210156200027c5787850151600019600388901b60f8161c191681555b5050505050600190811b01905550565b61160d806200029c6000396000f3fe608060405234801561001057600080fd5b506004361061012c5760003560e01c8063741059b5116100ad578063a787c80b11610071578063a787c80b14610278578063b88d4fde146102a3578063c87b56dd146102b6578063e985e9c5146102c9578063f2fde38b146102dc57600080fd5b8063741059b51461023057806375794a3c146102435780638da5cb5b1461024c57806395d89b411461025d578063a22cb4651461026557600080fd5b806323b872dd116100f457806323b872dd146101dc57806342842e0e146101ef5780636352211e1461020257806370a0823114610215578063715018a61461022857600080fd5b806301ffc9a71461013157806306fdde0314610159578063081812fc1461016e578063095ea7b3146101995780631e11b41f146101ae575b600080fd5b61014461013f36600461109e565b6102ef565b60405190151581526020015b60405180910390f35b61016161031a565b604051610150919061110b565b61018161017c36600461111e565b6103ac565b6040516001600160a01b039091168152602001610150565b6101ac6101a7366004611153565b6103d5565b005b6101ce6101bc36600461117d565b60096020526000908152604090205481565b604051908152602001610150565b6101ac6101ea366004611198565b6103e4565b6101ac6101fd366004611198565b610474565b61018161021036600461111e565b610494565b6101ce61022336600461117d565b61049f565b6101ac6104e7565b6101ce61023e3660046111d4565b6104fb565b6101ce60085481565b6007546001600160a01b0316610181565b61016161066d565b6101ac610273366004611257565b61067c565b61014461028636600461117d565b6001600160a01b0316600090815260096020526040902054151590565b6101ac6102b13660046112a9565b610687565b6101616102c436600461111e565b61069f565b6101446102d7366004611385565b6107b0565b6101ac6102ea36600461117d565b6107de565b60006001600160e01b03198216632483248360e11b148061031457506103148261081c565b92915050565b606060008054610329906113b8565b80601f0160208091040260200160405190810160405280929190818152602001828054610355906113b8565b80156103a25780601f10610377576101008083540402835291602001916103a2565b820191906000526020600020905b81548152906001019060200180831161038557829003601f168201915b5050505050905090565b60006103b78261086c565b506000828152600460205260409020546001600160a01b0316610314565b6103e08282336108a5565b5050565b6001600160a01b03821661041357604051633250574960e11b8152600060048201526024015b60405180910390fd5b60006104208383336108b2565b9050836001600160a01b0316816001600160a01b03161461046e576040516364283d7b60e01b81526001600160a01b038086166004830152602482018490528216604482015260640161040a565b50505050565b61048f83838360405180602001604052806000815250610687565b505050565b60006103148261086c565b60006001600160a01b0382166104cb576040516322718ad960e21b81526000600482015260240161040a565b506001600160a01b031660009081526003602052604090205490565b6104ef6109ab565b6104f960006109d8565b565b60006105056109ab565b6001600160a01b03841661054c5760405162461bcd60e51b815260206004820152600e60248201526d125b9d985b1a59081dd85b1b195d60921b604482015260640161040a565b6001600160a01b038416600090815260096020526040902054156105ab5760405162461bcd60e51b815260206004820152601660248201527550726f66696c6520616c72656164792065786973747360501b604482015260640161040a565b60006008600081546105bc906113f2565b918290555090506105cd8582610a2a565b61060d8185858080601f016020809104026020016040519081016040528093929190818152602001838380828437600092019190915250610a4492505050565b6001600160a01b03851660008181526009602052604090819020839055518291907f798b0091a4723034912e9709e44d3648844a13048313ae4f9590c21bfc56586b9061065d9088908890611419565b60405180910390a3949350505050565b606060018054610329906113b8565b6103e0338383610a94565b6106928484846103e4565b61046e3385858585610b33565b60606106aa8261086c565b50600082815260066020526040812080546106c4906113b8565b80601f01602080910402602001604051908101604052809291908181526020018280546106f0906113b8565b801561073d5780601f106107125761010080835404028352916020019161073d565b820191906000526020600020905b81548152906001019060200180831161072057829003601f168201915b50505050509050600061075b60408051602081019091526000815290565b9050805160000361076d575092915050565b81511561079f578082604051602001610787929190611448565b60405160208183030381529060405292505050919050565b6107a884610c5e565b949350505050565b6001600160a01b03918216600090815260056020908152604080832093909416825291909152205460ff1690565b6107e66109ab565b6001600160a01b03811661081057604051631e4fbdf760e01b81526000600482015260240161040a565b610819816109d8565b50565b60006001600160e01b031982166380ac58cd60e01b148061084d57506001600160e01b03198216635b5e139f60e01b145b8061031457506301ffc9a760e01b6001600160e01b0319831614610314565b6000818152600260205260408120546001600160a01b03168061031457604051637e27328960e01b81526004810184905260240161040a565b61048f8383836001610cd3565b6000828152600260205260408120546001600160a01b03908116908316156108df576108df818486610dd9565b6001600160a01b0381161561091d576108fc600085600080610cd3565b6001600160a01b038116600090815260036020526040902080546000190190555b6001600160a01b0385161561094c576001600160a01b0385166000908152600360205260409020805460010190555b60008481526002602052604080822080546001600160a01b0319166001600160a01b0389811691821790925591518793918516917fddf252ad1be2c89b69c2b068fc378daa952ba7f163c4a11628f55a4df523b3ef91a4949350505050565b6007546001600160a01b031633146104f95760405163118cdaa760e01b815233600482015260240161040a565b600780546001600160a01b038381166001600160a01b0319831681179093556040519116919082907f8be0079c531659141344cd1fd0a4f28419497f9722a3daafe3b4186f6b6457e090600090a35050565b6103e0828260405180602001604052806000815250610e3d565b6000828152600660205260409020610a5c82826114bd565b506040518281527ff8e1a15aba9398e019f0b49df1a4fde98ee17ae345cb5f6b5e2c27f5033e8ce79060200160405180910390a15050565b6001600160a01b038216610ac657604051630b61174360e31b81526001600160a01b038316600482015260240161040a565b6001600160a01b03838116600081815260056020908152604080832094871680845294825291829020805460ff191686151590811790915591519182527f17307eab39ab6107e8899845ad3d59bd9653f200f220920489ca2b5937696c31910160405180910390a3505050565b6001600160a01b0383163b15610c5757604051630a85bd0160e11b81526001600160a01b0384169063150b7a0290610b7590889088908790879060040161157d565b6020604051808303816000875af1925050508015610bb0575060408051601f3d908101601f19168201909252610bad918101906115ba565b60015b610c19573d808015610bde576040519150601f19603f3d011682016040523d82523d6000602084013e610be3565b606091505b508051600003610c1157604051633250574960e11b81526001600160a01b038516600482015260240161040a565b805160208201fd5b6001600160e01b03198116630a85bd0160e11b14610c5557604051633250574960e11b81526001600160a01b038516600482015260240161040a565b505b5050505050565b6060610c698261086c565b506000610c8160408051602081019091526000815290565b90506000815111610ca15760405180602001604052806000815250610ccc565b80610cab84610e55565b604051602001610cbc929190611448565b6040516020818303038152906040525b9392505050565b8080610ce757506001600160a01b03821615155b15610da9576000610cf78461086c565b90506001600160a01b03831615801590610d235750826001600160a01b0316816001600160a01b031614155b8015610d365750610d3481846107b0565b155b15610d5f5760405163a9fbf51f60e01b81526001600160a01b038416600482015260240161040a565b8115610da75783856001600160a01b0316826001600160a01b03167f8c5be1e5ebec7d5bd14f71427d1e84f3dd0314c0f7b2291e5b200ac8c7c3b92560405160405180910390a45b505b5050600090815260046020526040902080546001600160a01b0319166001600160a01b0392909216919091179055565b610de4838383610ee8565b61048f576001600160a01b038316610e1257604051637e27328960e01b81526004810182905260240161040a565b60405163177e802f60e01b81526001600160a01b03831660048201526024810182905260440161040a565b610e478383610f4b565b61048f336000858585610b33565b60606000610e6283610fb0565b600101905060008167ffffffffffffffff811115610e8257610e82611293565b6040519080825280601f01601f191660200182016040528015610eac576020820181803683370190505b5090508181016020015b600019016f181899199a1a9b1b9c1cb0b131b232b360811b600a86061a8153600a8504945084610eb657509392505050565b60006001600160a01b038316158015906107a85750826001600160a01b0316846001600160a01b03161480610f225750610f2284846107b0565b806107a85750506000908152600460205260409020546001600160a01b03908116911614919050565b6001600160a01b038216610f7557604051633250574960e11b81526000600482015260240161040a565b6000610f83838360006108b2565b90506001600160a01b0381161561048f576040516339e3563760e11b81526000600482015260240161040a565b60008072184f03e93ff9f4daa797ed6e38ed64bf6a1f0160401b8310610fef5772184f03e93ff9f4daa797ed6e38ed64bf6a1f0160401b830492506040015b6d04ee2d6d415b85acef8100000000831061101b576d04ee2d6d415b85acef8100000000830492506020015b662386f26fc10000831061103957662386f26fc10000830492506010015b6305f5e1008310611051576305f5e100830492506008015b612710831061106557612710830492506004015b60648310611077576064830492506002015b600a83106103145760010192915050565b6001600160e01b03198116811461081957600080fd5b6000602082840312156110b057600080fd5b8135610ccc81611088565b60005b838110156110d65781810151838201526020016110be565b50506000910152565b600081518084526110f78160208601602086016110bb565b601f01601f19169290920160200192915050565b602081526000610ccc60208301846110df565b60006020828403121561113057600080fd5b5035919050565b80356001600160a01b038116811461114e57600080fd5b919050565b6000806040838503121561116657600080fd5b61116f83611137565b946020939093013593505050565b60006020828403121561118f57600080fd5b610ccc82611137565b6000806000606084860312156111ad57600080fd5b6111b684611137565b92506111c460208501611137565b9150604084013590509250925092565b6000806000604084860312156111e957600080fd5b6111f284611137565b9250602084013567ffffffffffffffff8082111561120f57600080fd5b818601915086601f83011261122357600080fd5b81358181111561123257600080fd5b87602082850101111561124457600080fd5b6020830194508093505050509250925092565b6000806040838503121561126a57600080fd5b61127383611137565b91506020830135801515811461128857600080fd5b809150509250929050565b634e487b7160e01b600052604160045260246000fd5b600080600080608085870312156112bf57600080fd5b6112c885611137565b93506112d660208601611137565b925060408501359150606085013567ffffffffffffffff808211156112fa57600080fd5b818701915087601f83011261130e57600080fd5b81358181111561132057611320611293565b604051601f8201601f19908116603f0116810190838211818310171561134857611348611293565b816040528281528a602084870101111561136157600080fd5b82602086016020830137600060208483010152809550505050505092959194509250565b6000806040838503121561139857600080fd5b6113a183611137565b91506113af60208401611137565b90509250929050565b600181811c908216806113cc57607f821691505b6020821081036113ec57634e487b7160e01b600052602260045260246000fd5b50919050565b60006001820161141257634e487b7160e01b600052601160045260246000fd5b5060010190565b60208152816020820152818360408301376000818301604090810191909152601f909201601f19160101919050565b6000835161145a8184602088016110bb565b83519083019061146e8183602088016110bb565b01949350505050565b601f82111561048f57600081815260208120601f850160051c8101602086101561149e5750805b601f850160051c820191505b81811015610c55578281556001016114aa565b815167ffffffffffffffff8111156114d7576114d7611293565b6114eb816114e584546113b8565b84611477565b602080601f83116001811461152057600084156115085750858301515b600019600386901b1c1916600185901b178555610c55565b600085815260208120601f198616915b8281101561154f57888601518255948401946001909101908401611530565b508582101561156d5787850151600019600388901b60f8161c191681555b5050505050600190811b01905550565b6001600160a01b03858116825284166020820152604081018390526080606082018190526000906115b0908301846110df565b9695505050505050565b6000602082840312156115cc57600080fd5b8151610ccc8161108856fea2646970667358221220c82b3ae1e2fbc9c3aa26f6c36241c73493d1e5b964f7b21da967d1169df319f564736f6c63430008140033",
  "linkReferences": {},
  "deployedLinkReferences": {}
}